{
    "_format": "hh-sol-artifact-1",
    "contractName": "RedPetals",
    "sourceName": "contracts/RedPetals.sol",
    "abi": [
        {
            "inputs": [
                {
                    "internalType": "uint256",
                    "name": "",
                    "type": "uint256"
                }
            ],
            "name": "aadharExists",
            "outputs": [
                {
                    "internalType": "bool",
                    "name": "",
                    "type": "bool"
                }
            ],
            "stateMutability": "view",
            "type": "function"
        },
        {
            "inputs": [
                {
                    "internalType": "uint256",
                    "name": "",
                    "type": "uint256"
                }
            ],
            "name": "aadharvsAddress",
            "outputs": [
                {
                    "internalType": "address",
                    "name": "",
                    "type": "address"
                }
            ],
            "stateMutability": "view",
            "type": "function"
        },
        {
            "inputs": [
                {
                    "internalType": "uint256",
                    "name": "_requestID",
                    "type": "uint256"
                },
                {
                    "internalType": "uint256",
                    "name": "_donorAadhar",
                    "type": "uint256"
                },
                {
                    "internalType": "uint256",
                    "name": "timestamp",
                    "type": "uint256"
                }
            ],
            "name": "donationEnd",
            "outputs": [],
            "stateMutability": "nonpayable",
            "type": "function"
        },
        {
            "inputs": [
                {
                    "internalType": "uint256",
                    "name": "_requestID",
                    "type": "uint256"
                }
            ],
            "name": "donationStart",
            "outputs": [],
            "stateMutability": "nonpayable",
            "type": "function"
        },
        {
            "inputs": [
                {
                    "internalType": "uint256",
                    "name": "_aadharNumber",
                    "type": "uint256"
                }
            ],
            "name": "getUserDetails",
            "outputs": [
                {
                    "internalType": "uint256",
                    "name": "aadharNumber",
                    "type": "uint256"
                },
                {
                    "internalType": "string",
                    "name": "bloodgroup",
                    "type": "string"
                },
                {
                    "internalType": "string",
                    "name": "city",
                    "type": "string"
                },
                {
                    "internalType": "uint256",
                    "name": "lastDonated",
                    "type": "uint256"
                }
            ],
            "stateMutability": "view",
            "type": "function"
        },
        {
            "inputs": [],
            "name": "numOfRequests",
            "outputs": [
                {
                    "internalType": "uint256",
                    "name": "",
                    "type": "uint256"
                }
            ],
            "stateMutability": "view",
            "type": "function"
        },
        {
            "inputs": [],
            "name": "numOfUsers",
            "outputs": [
                {
                    "internalType": "uint256",
                    "name": "",
                    "type": "uint256"
                }
            ],
            "stateMutability": "view",
            "type": "function"
        },
        {
            "inputs": [
                {
                    "internalType": "string",
                    "name": "_bloodgroup",
                    "type": "string"
                },
                {
                    "internalType": "string",
                    "name": "_city",
                    "type": "string"
                },
                {
                    "internalType": "string",
                    "name": "_area",
                    "type": "string"
                },
                {
                    "internalType": "uint256",
                    "name": "_phoneNumber",
                    "type": "uint256"
                },
                {
                    "internalType": "uint256",
                    "name": "_donationAmount",
                    "type": "uint256"
                }
            ],
            "name": "registerRequest",
            "outputs": [],
            "stateMutability": "payable",
            "type": "function"
        },
        {
            "inputs": [
                {
                    "internalType": "uint256",
                    "name": "_aadharNumber",
                    "type": "uint256"
                },
                {
                    "internalType": "string",
                    "name": "_bloodgroup",
                    "type": "string"
                },
                {
                    "internalType": "string",
                    "name": "_city",
                    "type": "string"
                }
            ],
            "name": "registerUser",
            "outputs": [],
            "stateMutability": "nonpayable",
            "type": "function"
        },
        {
            "inputs": [
                {
                    "internalType": "uint256",
                    "name": "",
                    "type": "uint256"
                }
            ],
            "name": "requests",
            "outputs": [
                {
                    "internalType": "address",
                    "name": "owner",
                    "type": "address"
                },
                {
                    "internalType": "string",
                    "name": "bloodgroup",
                    "type": "string"
                },
                {
                    "internalType": "string",
                    "name": "city",
                    "type": "string"
                },
                {
                    "internalType": "string",
                    "name": "area",
                    "type": "string"
                },
                {
                    "internalType": "uint256",
                    "name": "phoneNumber",
                    "type": "uint256"
                },
                {
                    "internalType": "uint256",
                    "name": "donationAmount",
                    "type": "uint256"
                },
                {
                    "internalType": "uint256",
                    "name": "donorAadhar",
                    "type": "uint256"
                },
                {
                    "internalType": "bool",
                    "name": "donationStarted",
                    "type": "bool"
                },
                {
                    "internalType": "bool",
                    "name": "donationCompleted",
                    "type": "bool"
                }
            ],
            "stateMutability": "view",
            "type": "function"
        },
        {
            "inputs": [
                {
                    "internalType": "address",
                    "name": "",
                    "type": "address"
                }
            ],
            "name": "users",
            "outputs": [
                {
                    "internalType": "uint256",
                    "name": "aadharNumber",
                    "type": "uint256"
                },
                {
                    "internalType": "string",
                    "name": "bloodgroup",
                    "type": "string"
                },
                {
                    "internalType": "string",
                    "name": "city",
                    "type": "string"
                },
                {
                    "internalType": "uint256",
                    "name": "lastDonated",
                    "type": "uint256"
                }
            ],
            "stateMutability": "view",
            "type": "function"
        }
    ],
    "bytecode": "0x608060405234801561001057600080fd5b50610fe5806100206000396000f3fe60806040526004361061009c5760003560e01c8063b6290e7611610064578063b6290e7614610175578063c1ed201a1461018b578063c360de72146101cb578063d47e6699146101eb578063fb4ff97a146101fe578063ff934a361461024c57600080fd5b80631c1a9f7b146100a157806343f7bde5146100da578063691c2c8a146100fe57806381d12c5814610120578063a87430ba14610155575b600080fd5b3480156100ad57600080fd5b506100c16100bc366004610d3e565b61026c565b6040516100d19493929190610efa565b60405180910390f35b3480156100e657600080fd5b506100f060005481565b6040519081526020016100d1565b34801561010a57600080fd5b5061011e610119366004610d3e565b6103d2565b005b34801561012c57600080fd5b5061014061013b366004610d3e565b610491565b6040516100d199989796959493929190610e36565b34801561016157600080fd5b506100c1610170366004610c7a565b610681565b34801561018157600080fd5b506100f060045481565b34801561019757600080fd5b506101bb6101a6366004610d3e565b60026020526000908152604090205460ff1681565b60405190151581526020016100d1565b3480156101d757600080fd5b5061011e6101e6366004610dc0565b6107b9565b61011e6101f9366004610ca8565b6108f0565b34801561020a57600080fd5b50610234610219366004610d3e565b6003602052600090815260409020546001600160a01b031681565b6040516001600160a01b0390911681526020016100d1565b34801561025857600080fd5b5061011e610267366004610d56565b610a02565b6000818152600360208181526040808420546001600160a01b03168452600191829052832080549281015491810180546060948594879491939260029092019183906102b790610f37565b80601f01602080910402602001604051908101604052809291908181526020018280546102e390610f37565b80156103305780601f1061030557610100808354040283529160200191610330565b820191906000526020600020905b81548152906001019060200180831161031357829003601f168201915b5050505050925081805461034390610f37565b80601f016020809104026020016040519081016040528092919081815260200182805461036f90610f37565b80156103bc5780601f10610391576101008083540402835291602001916103bc565b820191906000526020600020905b81548152906001019060200180831161039f57829003601f168201915b5050505050915093509350935093509193509193565b6000818152600560205260409020546001600160a01b031633146104115760405162461bcd60e51b815260040161040890610eb5565b60405180910390fd5b60008181526005602052604090206007015460ff16156104735760405162461bcd60e51b815260206004820152601c60248201527f446f6e6174696f6e2068617320616c72656164792073746172746564000000006044820152606401610408565b6000908152600560205260409020600701805460ff19166001179055565b600560205260009081526040902080546001820180546001600160a01b0390921692916104bd90610f37565b80601f01602080910402602001604051908101604052809291908181526020018280546104e990610f37565b80156105365780601f1061050b57610100808354040283529160200191610536565b820191906000526020600020905b81548152906001019060200180831161051957829003601f168201915b50505050509080600201805461054b90610f37565b80601f016020809104026020016040519081016040528092919081815260200182805461057790610f37565b80156105c45780601f10610599576101008083540402835291602001916105c4565b820191906000526020600020905b8154815290600101906020018083116105a757829003601f168201915b5050505050908060030180546105d990610f37565b80601f016020809104026020016040519081016040528092919081815260200182805461060590610f37565b80156106525780601f1061062757610100808354040283529160200191610652565b820191906000526020600020905b81548152906001019060200180831161063557829003601f168201915b505050506004830154600584015460068501546007909501549394919390925060ff8082169161010090041689565b6001602081905260009182526040909120805491810180546106a290610f37565b80601f01602080910402602001604051908101604052809291908181526020018280546106ce90610f37565b801561071b5780601f106106f05761010080835404028352916020019161071b565b820191906000526020600020905b8154815290600101906020018083116106fe57829003601f168201915b50505050509080600201805461073090610f37565b80601f016020809104026020016040519081016040528092919081815260200182805461075c90610f37565b80156107a95780601f1061077e576101008083540402835291602001916107a9565b820191906000526020600020905b81548152906001019060200180831161078c57829003601f168201915b5050505050908060030154905084565b6000838152600560205260409020546001600160a01b031633146107ef5760405162461bcd60e51b815260040161040890610eb5565b60008381526005602052604090206007015460ff166108505760405162461bcd60e51b815260206004820152601d60248201527f446f6e6174696f6e20686173206e6f74206265656e20737461727465640000006044820152606401610408565b600083815260056020818152604080842060078101805461ff001916610100179055600681018790558685526003835281852054888652928490529092015491516001600160a01b039091169282156108fc02929190818181858888f193505050501580156108c3573d6000803e3d6000fd5b506000918252600360208181526040808520546001600160a01b0316855260019091529092209091015550565b8034146109325760405162461bcd60e51b815260206004820152601060248201526f139bdd081d985b1a5908185b5bdd5b9d60821b6044820152606401610408565b6004805490600061094283610f72565b90915550506004546000908152600560209081526040909120865161096f92600190920191880190610b5a565b506004546000908152600560209081526040909120855161099892600290920191870190610b5a565b50600454600090815260056020908152604090912084516109c192600390920191860190610b5a565b506004805460009081526005602081905260408083208401959095558254825284822001929092555481522080546001600160a01b03191633179055505050565b60008381526002602052604090205460ff1615610a615760405162461bcd60e51b815260206004820152601a60248201527f416164686172206361726420616c7265616479206578697374730000000000006044820152606401610408565b3360009081526001602052604090205415610abe5760405162461bcd60e51b815260206004820152601a60248201527f4164647265737320616c726561647920726567697374657265640000000000006044820152606401610408565b600080549080610acd83610f72565b90915550503360009081526001602081815260409092208581558451610afb93919092019190850190610b5a565b503360009081526001602090815260409091208251610b2292600290920191840190610b5a565b5050506000908152600260209081526040808320805460ff191660011790556003909152902080546001600160a01b03191633179055565b828054610b6690610f37565b90600052602060002090601f016020900481019282610b885760008555610bce565b82601f10610ba157805160ff1916838001178555610bce565b82800160010185558215610bce579182015b82811115610bce578251825591602001919060010190610bb3565b50610bda929150610bde565b5090565b5b80821115610bda5760008155600101610bdf565b600082601f830112610c03578081fd5b813567ffffffffffffffff80821115610c1e57610c1e610f99565b604051601f8301601f19908116603f01168101908282118183101715610c4657610c46610f99565b81604052838152866020858801011115610c5e578485fd5b8360208701602083013792830160200193909352509392505050565b600060208284031215610c8b578081fd5b81356001600160a01b0381168114610ca1578182fd5b9392505050565b600080600080600060a08688031215610cbf578081fd5b853567ffffffffffffffff80821115610cd6578283fd5b610ce289838a01610bf3565b96506020880135915080821115610cf7578283fd5b610d0389838a01610bf3565b95506040880135915080821115610d18578283fd5b50610d2588828901610bf3565b9598949750949560608101359550608001359392505050565b600060208284031215610d4f578081fd5b5035919050565b600080600060608486031215610d6a578283fd5b83359250602084013567ffffffffffffffff80821115610d88578384fd5b610d9487838801610bf3565b93506040860135915080821115610da9578283fd5b50610db686828701610bf3565b9150509250925092565b600080600060608486031215610dd4578283fd5b505081359360208301359350604090920135919050565b60008151808452815b81811015610e1057602081850181015186830182015201610df4565b81811115610e215782602083870101525b50601f01601f19169290920160200192915050565b6001600160a01b038a16815261012060208201819052600090610e5b8382018c610deb565b90508281036040840152610e6f818b610deb565b90508281036060840152610e83818a610deb565b6080840198909852505060a081019490945260c0840192909252151560e0830152151561010090910152949350505050565b60208082526025908201527f596f7520617265206e6f7420746865206f776e6572206f6620746869732072656040820152641c5d595cdd60da1b606082015260800190565b848152608060208201526000610f136080830186610deb565b8281036040840152610f258186610deb565b91505082606083015295945050505050565b600181811c90821680610f4b57607f821691505b60208210811415610f6c57634e487b7160e01b600052602260045260246000fd5b50919050565b6000600019821415610f9257634e487b7160e01b81526011600452602481fd5b5060010190565b634e487b7160e01b600052604160045260246000fdfea264697066735822122017d1a05703f90986ea694a431501982352423757484ea0a04aac81df7c2f060264736f6c63430008040033",
    "linkReferences": {},
    "deployedLinkReferences": {}
}