{
  "_format": "hh-sol-artifact-1",
  "contractName": "YouDefi",
  "sourceName": "contracts/YouDefi.sol",
  "abi": [
    {
      "inputs": [
        {
          "internalType": "uint256",
          "name": "",
          "type": "uint256"
        }
      ],
      "name": "Influencers",
      "outputs": [
        {
          "internalType": "address",
          "name": "tokenAddress",
          "type": "address"
        },
        {
          "internalType": "address",
          "name": "owner",
          "type": "address"
        },
        {
          "internalType": "string",
          "name": "youtubeChannelLink",
          "type": "string"
        }
      ],
      "stateMutability": "view",
      "type": "function"
    },
    {
      "inputs": [
        {
          "internalType": "uint256",
          "name": "",
          "type": "uint256"
        }
      ],
      "name": "Loans",
      "outputs": [
        {
          "internalType": "address",
          "name": "tokenAddress",
          "type": "address"
        },
        {
          "internalType": "address",
          "name": "lender",
          "type": "address"
        },
        {
          "internalType": "address",
          "name": "borrower",
          "type": "address"
        },
        {
          "internalType": "uint256",
          "name": "loanAmount",
          "type": "uint256"
        },
        {
          "internalType": "uint256",
          "name": "feeAmount",
          "type": "uint256"
        },
        {
          "internalType": "uint256",
          "name": "ethCollateralAmount",
          "type": "uint256"
        },
        {
          "internalType": "uint256",
          "name": "repayByTimestamp",
          "type": "uint256"
        },
        {
          "internalType": "string",
          "name": "status",
          "type": "string"
        }
      ],
      "stateMutability": "view",
      "type": "function"
    },
    {
      "inputs": [],
      "name": "getTimestamp",
      "outputs": [
        {
          "internalType": "uint256",
          "name": "",
          "type": "uint256"
        }
      ],
      "stateMutability": "view",
      "type": "function"
    },
    {
      "inputs": [
        {
          "internalType": "address",
          "name": "_tokenAddress",
          "type": "address"
        },
        {
          "internalType": "uint256",
          "name": "_loanAmt",
          "type": "uint256"
        },
        {
          "internalType": "uint256",
          "name": "_fee",
          "type": "uint256"
        },
        {
          "internalType": "uint256",
          "name": "_collateral",
          "type": "uint256"
        },
        {
          "internalType": "uint256",
          "name": "_timestamp",
          "type": "uint256"
        }
      ],
      "name": "initiateLoan",
      "outputs": [],
      "stateMutability": "nonpayable",
      "type": "function"
    },
    {
      "inputs": [
        {
          "internalType": "uint256",
          "name": "_LoanID",
          "type": "uint256"
        }
      ],
      "name": "liquidate",
      "outputs": [],
      "stateMutability": "nonpayable",
      "type": "function"
    },
    {
      "inputs": [],
      "name": "numOfInfluencers",
      "outputs": [
        {
          "internalType": "uint256",
          "name": "",
          "type": "uint256"
        }
      ],
      "stateMutability": "view",
      "type": "function"
    },
    {
      "inputs": [],
      "name": "numOfLoans",
      "outputs": [
        {
          "internalType": "uint256",
          "name": "",
          "type": "uint256"
        }
      ],
      "stateMutability": "view",
      "type": "function"
    },
    {
      "inputs": [
        {
          "internalType": "string",
          "name": "_youtubeChannelLink",
          "type": "string"
        },
        {
          "internalType": "string",
          "name": "_tokenName",
          "type": "string"
        },
        {
          "internalType": "string",
          "name": "_symbol",
          "type": "string"
        }
      ],
      "name": "registerInfluencer",
      "outputs": [],
      "stateMutability": "nonpayable",
      "type": "function"
    },
    {
      "inputs": [
        {
          "internalType": "uint256",
          "name": "_LoanID",
          "type": "uint256"
        }
      ],
      "name": "repay",
      "outputs": [],
      "stateMutability": "nonpayable",
      "type": "function"
    },
    {
      "inputs": [
        {
          "internalType": "uint256",
          "name": "_LoanID",
          "type": "uint256"
        }
      ],
      "name": "takeLoan",
      "outputs": [],
      "stateMutability": "payable",
      "type": "function"
    }
  ],
  "bytecode": "0x608060405260008055600060025534801561001957600080fd5b5061324d806100296000396000f3fe6080604052600436106200009e5760003560e01c80635e177ed711620000615780635e177ed7146200018d57806389b279e714620001bd5780638c803fc21462000208578063ac9febdc1462000228578063af444e2d146200026e576200009e565b8063188ec35614620000a3578063371fd8e614620000d3578063415f1240146200010157806343362da3146200012f57806356bebc7e146200015f575b600080fd5b348015620000b057600080fd5b50620000bb6200029c565b604051620000ca919062001514565b60405180910390f35b348015620000e057600080fd5b50620000ff6004803603810190620000f99190620011e3565b620002a4565b005b3480156200010e57600080fd5b506200012d6004803603810190620001279190620011e3565b6200057f565b005b3480156200013c57600080fd5b506200014762000745565b60405162000156919062001514565b60405180910390f35b3480156200016c57600080fd5b506200018b600480360381019062000185919062001094565b6200074b565b005b3480156200019a57600080fd5b50620001a562000980565b604051620001b4919062001514565b60405180910390f35b348015620001ca57600080fd5b50620001e96004803603810190620001e39190620011e3565b62000986565b604051620001ff9897969594939291906200130e565b60405180910390f35b620002266004803603810190620002209190620011e3565b62000abe565b005b3480156200023557600080fd5b506200025460048036038101906200024e9190620011e3565b62000ce9565b6040516200026593929190620013a3565b60405180910390f35b3480156200027b57600080fd5b506200029a600480360381019062000294919062001142565b62000de3565b005b600042905090565b6001600082815260200190815260200160002060020160009054906101000a900473ffffffffffffffffffffffffffffffffffffffff1673ffffffffffffffffffffffffffffffffffffffff163373ffffffffffffffffffffffffffffffffffffffff16146200034b576040517f08c379a000000000000000000000000000000000000000000000000000000000815260040162000342906200148c565b60405180910390fd5b6001600082815260200190815260200160002060000160009054906101000a900473ffffffffffffffffffffffffffffffffffffffff1673ffffffffffffffffffffffffffffffffffffffff166323b872dd6001600084815260200190815260200160002060020160009054906101000a900473ffffffffffffffffffffffffffffffffffffffff166001600085815260200190815260200160002060010160009054906101000a900473ffffffffffffffffffffffffffffffffffffffff1660016000868152602001908152602001600020600401546001600087815260200190815260200160002060030154620004459190620015ac565b6040518463ffffffff1660e01b81526004016200046593929190620013e7565b602060405180830381600087803b1580156200048057600080fd5b505af115801562000495573d6000803e3d6000fd5b505050506040513d601f19601f82011682018060405250810190620004bb919062001116565b503373ffffffffffffffffffffffffffffffffffffffff166108fc60016000848152602001908152602001600020600501549081150290604051600060405180830381858888f1935050505015801562000519573d6000803e3d6000fd5b506040518060400160405280600b81526020017f4c6f616e205265706169640000000000000000000000000000000000000000008152506001600083815260200190815260200160002060070190805190602001906200057b92919062000f1f565b5050565b6001600082815260200190815260200160002060010160009054906101000a900473ffffffffffffffffffffffffffffffffffffffff1673ffffffffffffffffffffffffffffffffffffffff163373ffffffffffffffffffffffffffffffffffffffff161462000626576040517f08c379a00000000000000000000000000000000000000000000000000000000081526004016200061d90620014d0565b60405180910390fd5b600160008281526020019081526020016000206006015442101562000682576040517f08c379a00000000000000000000000000000000000000000000000000000000081526004016200067990620014f2565b60405180910390fd5b3373ffffffffffffffffffffffffffffffffffffffff166108fc60016000848152602001908152602001600020600501549081150290604051600060405180830381858888f19350505050158015620006df573d6000803e3d6000fd5b506040518060400160405280600e81526020017f4c6f616e2044656661756c7465640000000000000000000000000000000000008152506001600083815260200190815260200160002060070190805190602001906200074192919062000f1f565b5050565b60005481565b6000808154809291906200075f9062001704565b919050555033600160008054815260200190815260200160002060010160006101000a81548173ffffffffffffffffffffffffffffffffffffffff021916908373ffffffffffffffffffffffffffffffffffffffff1602179055508360016000805481526020019081526020016000206003018190555082600160008054815260200190815260200160002060040181905550816001600080548152602001908152602001600020600501819055508060016000805481526020019081526020016000206006018190555084600160008054815260200190815260200160002060000160006101000a81548173ffffffffffffffffffffffffffffffffffffffff021916908373ffffffffffffffffffffffffffffffffffffffff1602179055506040518060400160405280600c81526020017f4c6f616e2043726561746564000000000000000000000000000000000000000081525060016000805481526020019081526020016000206007019080519060200190620008e292919062000f1f565b508473ffffffffffffffffffffffffffffffffffffffff166323b872dd3330876040518463ffffffff1660e01b81526004016200092293929190620013e7565b602060405180830381600087803b1580156200093d57600080fd5b505af115801562000952573d6000803e3d6000fd5b505050506040513d601f19601f8201168201806040525081019062000978919062001116565b505050505050565b60025481565b60016020528060005260406000206000915090508060000160009054906101000a900473ffffffffffffffffffffffffffffffffffffffff16908060010160009054906101000a900473ffffffffffffffffffffffffffffffffffffffff16908060020160009054906101000a900473ffffffffffffffffffffffffffffffffffffffff169080600301549080600401549080600501549080600601549080600701805462000a359062001698565b80601f016020809104026020016040519081016040528092919081815260200182805462000a639062001698565b801562000ab45780601f1062000a885761010080835404028352916020019162000ab4565b820191906000526020600020905b81548152906001019060200180831162000a9657829003601f168201915b5050505050905088565b6001600082815260200190815260200160002060050154341462000b19576040517f08c379a000000000000000000000000000000000000000000000000000000000815260040162000b1090620014ae565b60405180910390fd5b336001600083815260200190815260200160002060020160006101000a81548173ffffffffffffffffffffffffffffffffffffffff021916908373ffffffffffffffffffffffffffffffffffffffff1602179055506001600082815260200190815260200160002060000160009054906101000a900473ffffffffffffffffffffffffffffffffffffffff1673ffffffffffffffffffffffffffffffffffffffff1663a9059cbb6001600084815260200190815260200160002060020160009054906101000a900473ffffffffffffffffffffffffffffffffffffffff1660016000858152602001908152602001600020600301546040518363ffffffff1660e01b815260040162000c2d92919062001424565b602060405180830381600087803b15801562000c4857600080fd5b505af115801562000c5d573d6000803e3d6000fd5b505050506040513d601f19601f8201168201806040525081019062000c83919062001116565b506040518060400160405280600d81526020017f4c6f616e20426f72726f7765640000000000000000000000000000000000000081525060016000838152602001908152602001600020600701908051906020019062000ce592919062000f1f565b5050565b60036020528060005260406000206000915090508060000160009054906101000a900473ffffffffffffffffffffffffffffffffffffffff16908060010160009054906101000a900473ffffffffffffffffffffffffffffffffffffffff169080600201805462000d5a9062001698565b80601f016020809104026020016040519081016040528092919081815260200182805462000d889062001698565b801562000dd95780601f1062000dad5761010080835404028352916020019162000dd9565b820191906000526020600020905b81548152906001019060200180831162000dbb57829003601f168201915b5050505050905083565b6002600081548092919062000df89062001704565b91905055506000828260405162000e0f9062000fb0565b62000e1c92919062001451565b604051809103906000f08015801562000e39573d6000803e3d6000fd5b50905083600360006002548152602001908152602001600020600201908051906020019062000e6a92919062000f1f565b508060036000600254815260200190815260200160002060000160006101000a81548173ffffffffffffffffffffffffffffffffffffffff021916908373ffffffffffffffffffffffffffffffffffffffff1602179055503360036000600254815260200190815260200160002060010160006101000a81548173ffffffffffffffffffffffffffffffffffffffff021916908373ffffffffffffffffffffffffffffffffffffffff16021790555050505050565b82805462000f2d9062001698565b90600052602060002090601f01602090048101928262000f51576000855562000f9d565b82601f1062000f6c57805160ff191683800117855562000f9d565b8280016001018555821562000f9d579182015b8281111562000f9c57825182559160200191906001019062000f7f565b5b50905062000fac919062000fbe565b5090565b6118c3806200195583390190565b5b8082111562000fd957600081600090555060010162000fbf565b5090565b600062000ff462000fee846200155a565b62001531565b9050828152602081018484840111156200100d57600080fd5b6200101a84828562001653565b509392505050565b600081359050620010338162001906565b92915050565b6000815190506200104a8162001920565b92915050565b600082601f8301126200106257600080fd5b81356200107484826020860162000fdd565b91505092915050565b6000813590506200108e816200193a565b92915050565b600080600080600060a08688031215620010ad57600080fd5b6000620010bd8882890162001022565b9550506020620010d0888289016200107d565b9450506040620010e3888289016200107d565b9350506060620010f6888289016200107d565b925050608062001109888289016200107d565b9150509295509295909350565b6000602082840312156200112957600080fd5b6000620011398482850162001039565b91505092915050565b6000806000606084860312156200115857600080fd5b600084013567ffffffffffffffff8111156200117357600080fd5b620011818682870162001050565b935050602084013567ffffffffffffffff8111156200119f57600080fd5b620011ad8682870162001050565b925050604084013567ffffffffffffffff811115620011cb57600080fd5b620011d98682870162001050565b9150509250925092565b600060208284031215620011f657600080fd5b600062001206848285016200107d565b91505092915050565b6200121a8162001609565b82525050565b60006200122d8262001590565b6200123981856200159b565b93506200124b81856020860162001662565b6200125681620017df565b840191505092915050565b6000620012706024836200159b565b91506200127d82620017f0565b604082019050919050565b6000620012976019836200159b565b9150620012a4826200183f565b602082019050919050565b6000620012be6026836200159b565b9150620012cb8262001868565b604082019050919050565b6000620012e56028836200159b565b9150620012f282620018b7565b604082019050919050565b620013088162001649565b82525050565b60006101008201905062001326600083018b6200120f565b62001335602083018a6200120f565b6200134460408301896200120f565b620013536060830188620012fd565b620013626080830187620012fd565b6200137160a0830186620012fd565b6200138060c0830185620012fd565b81810360e083015262001394818462001220565b90509998505050505050505050565b6000606082019050620013ba60008301866200120f565b620013c960208301856200120f565b8181036040830152620013dd818462001220565b9050949350505050565b6000606082019050620013fe60008301866200120f565b6200140d60208301856200120f565b6200141c6040830184620012fd565b949350505050565b60006040820190506200143b60008301856200120f565b6200144a6020830184620012fd565b9392505050565b600060408201905081810360008301526200146d818562001220565b9050818103602083015262001483818462001220565b90509392505050565b60006020820190508181036000830152620014a78162001261565b9050919050565b60006020820190508181036000830152620014c98162001288565b9050919050565b60006020820190508181036000830152620014eb81620012af565b9050919050565b600060208201905081810360008301526200150d81620012d6565b9050919050565b60006020820190506200152b6000830184620012fd565b92915050565b60006200153d62001550565b90506200154b8282620016ce565b919050565b6000604051905090565b600067ffffffffffffffff821115620015785762001577620017b0565b5b6200158382620017df565b9050602081019050919050565b600081519050919050565b600082825260208201905092915050565b6000620015b98262001649565b9150620015c68362001649565b9250827fffffffffffffffffffffffffffffffffffffffffffffffffffffffffffffffff03821115620015fe57620015fd62001752565b5b828201905092915050565b6000620016168262001629565b9050919050565b60008115159050919050565b600073ffffffffffffffffffffffffffffffffffffffff82169050919050565b6000819050919050565b82818337600083830152505050565b60005b838110156200168257808201518184015260208101905062001665565b8381111562001692576000848401525b50505050565b60006002820490506001821680620016b157607f821691505b60208210811415620016c857620016c762001781565b5b50919050565b620016d982620017df565b810181811067ffffffffffffffff82111715620016fb57620016fa620017b0565b5b80604052505050565b6000620017118262001649565b91507fffffffffffffffffffffffffffffffffffffffffffffffffffffffffffffffff82141562001747576200174662001752565b5b600182019050919050565b7f4e487b7100000000000000000000000000000000000000000000000000000000600052601160045260246000fd5b7f4e487b7100000000000000000000000000000000000000000000000000000000600052602260045260246000fd5b7f4e487b7100000000000000000000000000000000000000000000000000000000600052604160045260246000fd5b6000601f19601f8301169050919050565b7f4f6e6c792074686520626f72726f7765722063616e207265706179207468652060008201527f6c6f616e00000000000000000000000000000000000000000000000000000000602082015250565b7f496e76616c696420436f6c6c61746572616c20416d6f756e7400000000000000600082015250565b7f4f6e6c7920746865206c656e6465722063616e206c697175696461746520746860008201527f65206c6f616e0000000000000000000000000000000000000000000000000000602082015250565b7f43616e206e6f74206c6971756964617465206265666f726520746865206c6f6160008201527f6e20697320647565000000000000000000000000000000000000000000000000602082015250565b620019118162001609565b81146200191d57600080fd5b50565b6200192b816200161d565b81146200193757600080fd5b50565b620019458162001649565b81146200195157600080fd5b5056fe60806040523480156200001157600080fd5b50604051620018c3380380620018c3833981810160405281019062000037919062000336565b818181600390805190602001906200005192919062000214565b5080600490805190602001906200006a92919062000214565b505050620000893369152d02c7e14af68000006200009160201b60201c565b505062000660565b600073ffffffffffffffffffffffffffffffffffffffff168273ffffffffffffffffffffffffffffffffffffffff16141562000104576040517f08c379a0000000000000000000000000000000000000000000000000000000008152600401620000fb90620003e1565b60405180910390fd5b62000118600083836200020a60201b60201c565b80600260008282546200012c919062000490565b92505081905550806000808473ffffffffffffffffffffffffffffffffffffffff1673ffffffffffffffffffffffffffffffffffffffff168152602001908152602001600020600082825462000183919062000490565b925050819055508173ffffffffffffffffffffffffffffffffffffffff16600073ffffffffffffffffffffffffffffffffffffffff167fddf252ad1be2c89b69c2b068fc378daa952ba7f163c4a11628f55a4df523b3ef83604051620001ea919062000403565b60405180910390a362000206600083836200020f60201b60201c565b5050565b505050565b505050565b82805462000222906200052d565b90600052602060002090601f01602090048101928262000246576000855562000292565b82601f106200026157805160ff191683800117855562000292565b8280016001018555821562000292579182015b828111156200029157825182559160200191906001019062000274565b5b509050620002a19190620002a5565b5090565b5b80821115620002c0576000816000905550600101620002a6565b5090565b6000620002db620002d58462000449565b62000420565b905082815260208101848484011115620002f457600080fd5b62000301848285620004f7565b509392505050565b600082601f8301126200031b57600080fd5b81516200032d848260208601620002c4565b91505092915050565b600080604083850312156200034a57600080fd5b600083015167ffffffffffffffff8111156200036557600080fd5b620003738582860162000309565b925050602083015167ffffffffffffffff8111156200039157600080fd5b6200039f8582860162000309565b9150509250929050565b6000620003b8601f836200047f565b9150620003c58262000637565b602082019050919050565b620003db81620004ed565b82525050565b60006020820190508181036000830152620003fc81620003a9565b9050919050565b60006020820190506200041a6000830184620003d0565b92915050565b60006200042c6200043f565b90506200043a828262000563565b919050565b6000604051905090565b600067ffffffffffffffff821115620004675762000466620005f7565b5b620004728262000626565b9050602081019050919050565b600082825260208201905092915050565b60006200049d82620004ed565b9150620004aa83620004ed565b9250827fffffffffffffffffffffffffffffffffffffffffffffffffffffffffffffffff03821115620004e257620004e162000599565b5b828201905092915050565b6000819050919050565b60005b8381101562000517578082015181840152602081019050620004fa565b8381111562000527576000848401525b50505050565b600060028204905060018216806200054657607f821691505b602082108114156200055d576200055c620005c8565b5b50919050565b6200056e8262000626565b810181811067ffffffffffffffff8211171562000590576200058f620005f7565b5b80604052505050565b7f4e487b7100000000000000000000000000000000000000000000000000000000600052601160045260246000fd5b7f4e487b7100000000000000000000000000000000000000000000000000000000600052602260045260246000fd5b7f4e487b7100000000000000000000000000000000000000000000000000000000600052604160045260246000fd5b6000601f19601f8301169050919050565b7f45524332303a206d696e7420746f20746865207a65726f206164647265737300600082015250565b61125380620006706000396000f3fe608060405234801561001057600080fd5b50600436106100a95760003560e01c80633950935111610071578063395093511461016857806370a082311461019857806395d89b41146101c8578063a457c2d7146101e6578063a9059cbb14610216578063dd62ed3e14610246576100a9565b806306fdde03146100ae578063095ea7b3146100cc57806318160ddd146100fc57806323b872dd1461011a578063313ce5671461014a575b600080fd5b6100b6610276565b6040516100c39190610d19565b60405180910390f35b6100e660048036038101906100e19190610b67565b610308565b6040516100f39190610cfe565b60405180910390f35b61010461032b565b6040516101119190610e1b565b60405180910390f35b610134600480360381019061012f9190610b18565b610335565b6040516101419190610cfe565b60405180910390f35b610152610364565b60405161015f9190610e36565b60405180910390f35b610182600480360381019061017d9190610b67565b61036d565b60405161018f9190610cfe565b60405180910390f35b6101b260048036038101906101ad9190610ab3565b6103a4565b6040516101bf9190610e1b565b60405180910390f35b6101d06103ec565b6040516101dd9190610d19565b60405180910390f35b61020060048036038101906101fb9190610b67565b61047e565b60405161020d9190610cfe565b60405180910390f35b610230600480360381019061022b9190610b67565b6104f5565b60405161023d9190610cfe565b60405180910390f35b610260600480360381019061025b9190610adc565b610518565b60405161026d9190610e1b565b60405180910390f35b60606003805461028590610f4b565b80601f01602080910402602001604051908101604052809291908181526020018280546102b190610f4b565b80156102fe5780601f106102d3576101008083540402835291602001916102fe565b820191906000526020600020905b8154815290600101906020018083116102e157829003601f168201915b5050505050905090565b60008061031361059f565b90506103208185856105a7565b600191505092915050565b6000600254905090565b60008061034061059f565b905061034d858285610772565b6103588585856107fe565b60019150509392505050565b60006012905090565b60008061037861059f565b905061039981858561038a8589610518565b6103949190610e6d565b6105a7565b600191505092915050565b60008060008373ffffffffffffffffffffffffffffffffffffffff1673ffffffffffffffffffffffffffffffffffffffff168152602001908152602001600020549050919050565b6060600480546103fb90610f4b565b80601f016020809104026020016040519081016040528092919081815260200182805461042790610f4b565b80156104745780601f1061044957610100808354040283529160200191610474565b820191906000526020600020905b81548152906001019060200180831161045757829003601f168201915b5050505050905090565b60008061048961059f565b905060006104978286610518565b9050838110156104dc576040517f08c379a00000000000000000000000000000000000000000000000000000000081526004016104d390610dfb565b60405180910390fd5b6104e982868684036105a7565b60019250505092915050565b60008061050061059f565b905061050d8185856107fe565b600191505092915050565b6000600160008473ffffffffffffffffffffffffffffffffffffffff1673ffffffffffffffffffffffffffffffffffffffff16815260200190815260200160002060008373ffffffffffffffffffffffffffffffffffffffff1673ffffffffffffffffffffffffffffffffffffffff16815260200190815260200160002054905092915050565b600033905090565b600073ffffffffffffffffffffffffffffffffffffffff168373ffffffffffffffffffffffffffffffffffffffff161415610617576040517f08c379a000000000000000000000000000000000000000000000000000000000815260040161060e90610ddb565b60405180910390fd5b600073ffffffffffffffffffffffffffffffffffffffff168273ffffffffffffffffffffffffffffffffffffffff161415610687576040517f08c379a000000000000000000000000000000000000000000000000000000000815260040161067e90610d5b565b60405180910390fd5b80600160008573ffffffffffffffffffffffffffffffffffffffff1673ffffffffffffffffffffffffffffffffffffffff16815260200190815260200160002060008473ffffffffffffffffffffffffffffffffffffffff1673ffffffffffffffffffffffffffffffffffffffff168152602001908152602001600020819055508173ffffffffffffffffffffffffffffffffffffffff168373ffffffffffffffffffffffffffffffffffffffff167f8c5be1e5ebec7d5bd14f71427d1e84f3dd0314c0f7b2291e5b200ac8c7c3b925836040516107659190610e1b565b60405180910390a3505050565b600061077e8484610518565b90507fffffffffffffffffffffffffffffffffffffffffffffffffffffffffffffffff81146107f857818110156107ea576040517f08c379a00000000000000000000000000000000000000000000000000000000081526004016107e190610d7b565b60405180910390fd5b6107f784848484036105a7565b5b50505050565b600073ffffffffffffffffffffffffffffffffffffffff168373ffffffffffffffffffffffffffffffffffffffff16141561086e576040517f08c379a000000000000000000000000000000000000000000000000000000000815260040161086590610dbb565b60405180910390fd5b600073ffffffffffffffffffffffffffffffffffffffff168273ffffffffffffffffffffffffffffffffffffffff1614156108de576040517f08c379a00000000000000000000000000000000000000000000000000000000081526004016108d590610d3b565b60405180910390fd5b6108e9838383610a7f565b60008060008573ffffffffffffffffffffffffffffffffffffffff1673ffffffffffffffffffffffffffffffffffffffff1681526020019081526020016000205490508181101561096f576040517f08c379a000000000000000000000000000000000000000000000000000000000815260040161096690610d9b565b60405180910390fd5b8181036000808673ffffffffffffffffffffffffffffffffffffffff1673ffffffffffffffffffffffffffffffffffffffff16815260200190815260200160002081905550816000808573ffffffffffffffffffffffffffffffffffffffff1673ffffffffffffffffffffffffffffffffffffffff1681526020019081526020016000206000828254610a029190610e6d565b925050819055508273ffffffffffffffffffffffffffffffffffffffff168473ffffffffffffffffffffffffffffffffffffffff167fddf252ad1be2c89b69c2b068fc378daa952ba7f163c4a11628f55a4df523b3ef84604051610a669190610e1b565b60405180910390a3610a79848484610a84565b50505050565b505050565b505050565b600081359050610a98816111ef565b92915050565b600081359050610aad81611206565b92915050565b600060208284031215610ac557600080fd5b6000610ad384828501610a89565b91505092915050565b60008060408385031215610aef57600080fd5b6000610afd85828601610a89565b9250506020610b0e85828601610a89565b9150509250929050565b600080600060608486031215610b2d57600080fd5b6000610b3b86828701610a89565b9350506020610b4c86828701610a89565b9250506040610b5d86828701610a9e565b9150509250925092565b60008060408385031215610b7a57600080fd5b6000610b8885828601610a89565b9250506020610b9985828601610a9e565b9150509250929050565b610bac81610ed5565b82525050565b6000610bbd82610e51565b610bc78185610e5c565b9350610bd7818560208601610f18565b610be081610fdb565b840191505092915050565b6000610bf8602383610e5c565b9150610c0382610fec565b604082019050919050565b6000610c1b602283610e5c565b9150610c268261103b565b604082019050919050565b6000610c3e601d83610e5c565b9150610c498261108a565b602082019050919050565b6000610c61602683610e5c565b9150610c6c826110b3565b604082019050919050565b6000610c84602583610e5c565b9150610c8f82611102565b604082019050919050565b6000610ca7602483610e5c565b9150610cb282611151565b604082019050919050565b6000610cca602583610e5c565b9150610cd5826111a0565b604082019050919050565b610ce981610f01565b82525050565b610cf881610f0b565b82525050565b6000602082019050610d136000830184610ba3565b92915050565b60006020820190508181036000830152610d338184610bb2565b905092915050565b60006020820190508181036000830152610d5481610beb565b9050919050565b60006020820190508181036000830152610d7481610c0e565b9050919050565b60006020820190508181036000830152610d9481610c31565b9050919050565b60006020820190508181036000830152610db481610c54565b9050919050565b60006020820190508181036000830152610dd481610c77565b9050919050565b60006020820190508181036000830152610df481610c9a565b9050919050565b60006020820190508181036000830152610e1481610cbd565b9050919050565b6000602082019050610e306000830184610ce0565b92915050565b6000602082019050610e4b6000830184610cef565b92915050565b600081519050919050565b600082825260208201905092915050565b6000610e7882610f01565b9150610e8383610f01565b9250827fffffffffffffffffffffffffffffffffffffffffffffffffffffffffffffffff03821115610eb857610eb7610f7d565b5b828201905092915050565b6000610ece82610ee1565b9050919050565b60008115159050919050565b600073ffffffffffffffffffffffffffffffffffffffff82169050919050565b6000819050919050565b600060ff82169050919050565b60005b83811015610f36578082015181840152602081019050610f1b565b83811115610f45576000848401525b50505050565b60006002820490506001821680610f6357607f821691505b60208210811415610f7757610f76610fac565b5b50919050565b7f4e487b7100000000000000000000000000000000000000000000000000000000600052601160045260246000fd5b7f4e487b7100000000000000000000000000000000000000000000000000000000600052602260045260246000fd5b6000601f19601f8301169050919050565b7f45524332303a207472616e7366657220746f20746865207a65726f206164647260008201527f6573730000000000000000000000000000000000000000000000000000000000602082015250565b7f45524332303a20617070726f766520746f20746865207a65726f20616464726560008201527f7373000000000000000000000000000000000000000000000000000000000000602082015250565b7f45524332303a20696e73756666696369656e7420616c6c6f77616e6365000000600082015250565b7f45524332303a207472616e7366657220616d6f756e742065786365656473206260008201527f616c616e63650000000000000000000000000000000000000000000000000000602082015250565b7f45524332303a207472616e736665722066726f6d20746865207a65726f20616460008201527f6472657373000000000000000000000000000000000000000000000000000000602082015250565b7f45524332303a20617070726f76652066726f6d20746865207a65726f2061646460008201527f7265737300000000000000000000000000000000000000000000000000000000602082015250565b7f45524332303a2064656372656173656420616c6c6f77616e63652062656c6f7760008201527f207a65726f000000000000000000000000000000000000000000000000000000602082015250565b6111f881610ec3565b811461120357600080fd5b50565b61120f81610f01565b811461121a57600080fd5b5056fea26469706673582212204cab111e2b9950d329c7ed2eec2e122796e8aa33d5a369a8258c81110b8a14fc64736f6c63430008030033a2646970667358221220d82780aea955c8882cd5b6e29e617e8f55ecc5d089fac81c615618ca3383156864736f6c63430008030033",
  "linkReferences": {},
  "deployedLinkReferences": {}
}