{
    "_format": "hh-sol-artifact-1",
    "contractName": "YouDefi",
    "sourceName": "contracts/YouDefi.sol",
    "abi": [
        {
            "inputs": [],
            "stateMutability": "nonpayable",
            "type": "constructor"
        },
        {
            "inputs": [
                {
                    "internalType": "uint256",
                    "name": "",
                    "type": "uint256"
                }
            ],
            "name": "Loans",
            "outputs": [
                {
                    "internalType": "address",
                    "name": "tokenAddress",
                    "type": "address"
                },
                {
                    "internalType": "address",
                    "name": "lender",
                    "type": "address"
                },
                {
                    "internalType": "address",
                    "name": "borrower",
                    "type": "address"
                },
                {
                    "internalType": "uint256",
                    "name": "loanDaiAmount",
                    "type": "uint256"
                },
                {
                    "internalType": "uint256",
                    "name": "feeDaiAmount",
                    "type": "uint256"
                },
                {
                    "internalType": "uint256",
                    "name": "ethCollateralAmount",
                    "type": "uint256"
                },
                {
                    "internalType": "uint256",
                    "name": "repayByTimestamp",
                    "type": "uint256"
                },
                {
                    "internalType": "string",
                    "name": "status",
                    "type": "string"
                }
            ],
            "stateMutability": "view",
            "type": "function"
        },
        {
            "inputs": [
                {
                    "internalType": "uint256",
                    "name": "_LoanID",
                    "type": "uint256"
                }
            ],
            "name": "NewRepay",
            "outputs": [],
            "stateMutability": "nonpayable",
            "type": "function"
        },
        {
            "inputs": [
                {
                    "internalType": "address",
                    "name": "_tokenAddress",
                    "type": "address"
                },
                {
                    "internalType": "uint256",
                    "name": "_loanAmt",
                    "type": "uint256"
                },
                {
                    "internalType": "uint256",
                    "name": "_fee",
                    "type": "uint256"
                },
                {
                    "internalType": "uint256",
                    "name": "_collateral",
                    "type": "uint256"
                },
                {
                    "internalType": "uint256",
                    "name": "_timestamp",
                    "type": "uint256"
                }
            ],
            "name": "NewinitiateLoan",
            "outputs": [],
            "stateMutability": "nonpayable",
            "type": "function"
        },
        {
            "inputs": [
                {
                    "internalType": "uint256",
                    "name": "_LoanID",
                    "type": "uint256"
                }
            ],
            "name": "Newliquidate",
            "outputs": [],
            "stateMutability": "nonpayable",
            "type": "function"
        },
        {
            "inputs": [
                {
                    "internalType": "uint256",
                    "name": "_LoanID",
                    "type": "uint256"
                }
            ],
            "name": "NewtakeLoan",
            "outputs": [],
            "stateMutability": "payable",
            "type": "function"
        },
        {
            "inputs": [],
            "name": "borrower",
            "outputs": [
                {
                    "internalType": "address payable",
                    "name": "",
                    "type": "address"
                }
            ],
            "stateMutability": "view",
            "type": "function"
        },
        {
            "inputs": [],
            "name": "fundLoan",
            "outputs": [],
            "stateMutability": "nonpayable",
            "type": "function"
        },
        {
            "inputs": [],
            "name": "getTimestamp",
            "outputs": [
                {
                    "internalType": "uint256",
                    "name": "",
                    "type": "uint256"
                }
            ],
            "stateMutability": "view",
            "type": "function"
        },
        {
            "inputs": [],
            "name": "lender",
            "outputs": [
                {
                    "internalType": "address payable",
                    "name": "",
                    "type": "address"
                }
            ],
            "stateMutability": "view",
            "type": "function"
        },
        {
            "inputs": [],
            "name": "liquidate",
            "outputs": [],
            "stateMutability": "nonpayable",
            "type": "function"
        },
        {
            "inputs": [],
            "name": "numOfLoans",
            "outputs": [
                {
                    "internalType": "uint256",
                    "name": "",
                    "type": "uint256"
                }
            ],
            "stateMutability": "view",
            "type": "function"
        },
        {
            "inputs": [],
            "name": "repay",
            "outputs": [],
            "stateMutability": "nonpayable",
            "type": "function"
        },
        {
            "inputs": [],
            "name": "state",
            "outputs": [
                {
                    "internalType": "enum YouDefi.LoanState",
                    "name": "",
                    "type": "uint8"
                }
            ],
            "stateMutability": "view",
            "type": "function"
        },
        {
            "inputs": [],
            "name": "takeALoanAndAcceptLoanTerms",
            "outputs": [],
            "stateMutability": "payable",
            "type": "function"
        },
        {
            "inputs": [],
            "name": "terms",
            "outputs": [
                {
                    "internalType": "address",
                    "name": "tokenAddress",
                    "type": "address"
                },
                {
                    "internalType": "address",
                    "name": "lender",
                    "type": "address"
                },
                {
                    "internalType": "address",
                    "name": "borrower",
                    "type": "address"
                },
                {
                    "internalType": "uint256",
                    "name": "loanDaiAmount",
                    "type": "uint256"
                },
                {
                    "internalType": "uint256",
                    "name": "feeDaiAmount",
                    "type": "uint256"
                },
                {
                    "internalType": "uint256",
                    "name": "ethCollateralAmount",
                    "type": "uint256"
                },
                {
                    "internalType": "uint256",
                    "name": "repayByTimestamp",
                    "type": "uint256"
                },
                {
                    "internalType": "string",
                    "name": "status",
                    "type": "string"
                }
            ],
            "stateMutability": "view",
            "type": "function"
        }
    ],
    "bytecode": "0x6080604052600060085534801561001557600080fd5b506120c0806100256000396000f3fe6080604052600436106100e85760003560e01c80637df1f1b91161008a578063c19d93fb11610059578063c19d93fb1461027e578063cc190d9f146102a9578063d5025625146102d2578063e636c77014610304576100e8565b80637df1f1b9146101cd57806389b279e7146101f85780638db579941461023c578063bcead63e14610253576100e8565b8063402d8883116100c6578063402d88831461015857806343362da31461016f5780634c4b28f61461019a5780636fa91dd5146101a4576100e8565b80630683be49146100ed578063188ec3561461011657806328a0702514610141575b600080fd5b3480156100f957600080fd5b50610114600480360381019061010f91906118ed565b610320565b005b34801561012257600080fd5b5061012b6105ed565b6040516101389190611c64565b60405180910390f35b34801561014d57600080fd5b506101566105f5565b005b34801561016457600080fd5b5061016d6107cb565b005b34801561017b57600080fd5b50610184610a64565b6040516101919190611c64565b60405180910390f35b6101a2610a6a565b005b3480156101b057600080fd5b506101cb60048036038101906101c691906118ed565b610ce0565b005b3480156101d957600080fd5b506101e2610e9d565b6040516101ef9190611a49565b60405180910390f35b34801561020457600080fd5b5061021f600480360381019061021a91906118ed565b610ec3565b604051610233989796959493929190611ac4565b60405180910390f35b34801561024857600080fd5b50610251610ff3565b005b34801561025f57600080fd5b506102686111c1565b6040516102759190611a49565b60405180910390f35b34801561028a57600080fd5b506102936111e7565b6040516102a09190611ba9565b60405180910390f35b3480156102b557600080fd5b506102d060048036038101906102cb919061184d565b6111fa565b005b3480156102de57600080fd5b506102e761142d565b6040516102fb989796959493929190611ac4565b60405180910390f35b61031e600480360381019061031991906118ed565b61154b565b005b6009600082815260200190815260200160002060020160009054906101000a900473ffffffffffffffffffffffffffffffffffffffff1673ffffffffffffffffffffffffffffffffffffffff163373ffffffffffffffffffffffffffffffffffffffff16146103c4576040517f08c379a00000000000000000000000000000000000000000000000000000000081526004016103bb90611bc4565b60405180910390fd5b6009600082815260200190815260200160002060000160009054906101000a900473ffffffffffffffffffffffffffffffffffffffff1673ffffffffffffffffffffffffffffffffffffffff166323b872dd6009600084815260200190815260200160002060020160009054906101000a900473ffffffffffffffffffffffffffffffffffffffff166009600085815260200190815260200160002060010160009054906101000a900473ffffffffffffffffffffffffffffffffffffffff16600960008681526020019081526020016000206004015460096000878152602001908152602001600020600301546104bc9190611c9b565b6040518463ffffffff1660e01b81526004016104da93929190611b49565b602060405180830381600087803b1580156104f457600080fd5b505af1158015610508573d6000803e3d6000fd5b505050506040513d601f19601f8201168201806040525081019061052c91906118c4565b503373ffffffffffffffffffffffffffffffffffffffff166108fc60096000848152602001908152602001600020600501549081150290604051600060405180830381858888f19350505050158015610589573d6000803e3d6000fd5b506040518060400160405280600b81526020017f4c6f616e205265706169640000000000000000000000000000000000000000008152506009600083815260200190815260200160002060070190805190602001906105e992919061176b565b5050565b600042905090565b6002806002811115610630577f4e487b7100000000000000000000000000000000000000000000000000000000600052602160045260246000fd5b600a60009054906101000a900460ff166002811115610678577f4e487b7100000000000000000000000000000000000000000000000000000000600052602160045260246000fd5b146106b8576040517f08c379a00000000000000000000000000000000000000000000000000000000081526004016106af90611c44565b60405180910390fd5b600a60019054906101000a900473ffffffffffffffffffffffffffffffffffffffff1673ffffffffffffffffffffffffffffffffffffffff163373ffffffffffffffffffffffffffffffffffffffff1614610748576040517f08c379a000000000000000000000000000000000000000000000000000000000815260040161073f90611c04565b60405180910390fd5b600060060154421015610790576040517f08c379a000000000000000000000000000000000000000000000000000000000815260040161078790611c24565b60405180910390fd5b600a60019054906101000a900473ffffffffffffffffffffffffffffffffffffffff1673ffffffffffffffffffffffffffffffffffffffff16ff5b6002806002811115610806577f4e487b7100000000000000000000000000000000000000000000000000000000600052602160045260246000fd5b600a60009054906101000a900460ff16600281111561084e577f4e487b7100000000000000000000000000000000000000000000000000000000600052602160045260246000fd5b1461088e576040517f08c379a000000000000000000000000000000000000000000000000000000000815260040161088590611c44565b60405180910390fd5b600b60009054906101000a900473ffffffffffffffffffffffffffffffffffffffff1673ffffffffffffffffffffffffffffffffffffffff163373ffffffffffffffffffffffffffffffffffffffff161461091e576040517f08c379a000000000000000000000000000000000000000000000000000000000815260040161091590611bc4565b60405180910390fd5b600c60009054906101000a900473ffffffffffffffffffffffffffffffffffffffff1673ffffffffffffffffffffffffffffffffffffffff166323b872dd600b60009054906101000a900473ffffffffffffffffffffffffffffffffffffffff16600a60019054906101000a900473ffffffffffffffffffffffffffffffffffffffff166000600401546000600301546109b89190611c9b565b6040518463ffffffff1660e01b81526004016109d693929190611a64565b602060405180830381600087803b1580156109f057600080fd5b505af1158015610a04573d6000803e3d6000fd5b505050506040513d601f19601f82011682018060405250810190610a2891906118c4565b50600b60009054906101000a900473ffffffffffffffffffffffffffffffffffffffff1673ffffffffffffffffffffffffffffffffffffffff16ff5b60085481565b6001806002811115610aa5577f4e487b7100000000000000000000000000000000000000000000000000000000600052602160045260246000fd5b600a60009054906101000a900460ff166002811115610aed577f4e487b7100000000000000000000000000000000000000000000000000000000600052602160045260246000fd5b14610b2d576040517f08c379a0000000000000000000000000000000000000000000000000000000008152600401610b2490611c44565b60405180910390fd5b6000600501543414610b74576040517f08c379a0000000000000000000000000000000000000000000000000000000008152600401610b6b90611be4565b60405180910390fd5b33600b60006101000a81548173ffffffffffffffffffffffffffffffffffffffff021916908373ffffffffffffffffffffffffffffffffffffffff1602179055506002600a60006101000a81548160ff02191690836002811115610c01577f4e487b7100000000000000000000000000000000000000000000000000000000600052602160045260246000fd5b0217905550600c60009054906101000a900473ffffffffffffffffffffffffffffffffffffffff1673ffffffffffffffffffffffffffffffffffffffff1663a9059cbb600b60009054906101000a900473ffffffffffffffffffffffffffffffffffffffff166000600301546040518363ffffffff1660e01b8152600401610c8a929190611a9b565b602060405180830381600087803b158015610ca457600080fd5b505af1158015610cb8573d6000803e3d6000fd5b505050506040513d601f19601f82011682018060405250810190610cdc91906118c4565b5050565b6009600082815260200190815260200160002060010160009054906101000a900473ffffffffffffffffffffffffffffffffffffffff1673ffffffffffffffffffffffffffffffffffffffff163373ffffffffffffffffffffffffffffffffffffffff1614610d84576040517f08c379a0000000000000000000000000000000000000000000000000000000008152600401610d7b90611c04565b60405180910390fd5b6009600082815260200190815260200160002060060154421015610ddd576040517f08c379a0000000000000000000000000000000000000000000000000000000008152600401610dd490611c24565b60405180910390fd5b3373ffffffffffffffffffffffffffffffffffffffff166108fc60096000848152602001908152602001600020600501549081150290604051600060405180830381858888f19350505050158015610e39573d6000803e3d6000fd5b506040518060400160405280600e81526020017f4c6f616e2044656661756c746564000000000000000000000000000000000000815250600960008381526020019081526020016000206007019080519060200190610e9992919061176b565b5050565b600b60009054906101000a900473ffffffffffffffffffffffffffffffffffffffff1681565b60096020528060005260406000206000915090508060000160009054906101000a900473ffffffffffffffffffffffffffffffffffffffff16908060010160009054906101000a900473ffffffffffffffffffffffffffffffffffffffff16908060020160009054906101000a900473ffffffffffffffffffffffffffffffffffffffff1690806003015490806004015490806005015490806006015490806007018054610f7090611dd9565b80601f0160208091040260200160405190810160405280929190818152602001828054610f9c90611dd9565b8015610fe95780601f10610fbe57610100808354040283529160200191610fe9565b820191906000526020600020905b815481529060010190602001808311610fcc57829003601f168201915b5050505050905088565b600080600281111561102e577f4e487b7100000000000000000000000000000000000000000000000000000000600052602160045260246000fd5b600a60009054906101000a900460ff166002811115611076577f4e487b7100000000000000000000000000000000000000000000000000000000600052602160045260246000fd5b146110b6576040517f08c379a00000000000000000000000000000000000000000000000000000000081526004016110ad90611c44565b60405180910390fd5b6001600a60006101000a81548160ff02191690836002811115611102577f4e487b7100000000000000000000000000000000000000000000000000000000600052602160045260246000fd5b0217905550600c60009054906101000a900473ffffffffffffffffffffffffffffffffffffffff1673ffffffffffffffffffffffffffffffffffffffff166323b872dd33306000600301546040518463ffffffff1660e01b815260040161116b93929190611b49565b602060405180830381600087803b15801561118557600080fd5b505af1158015611199573d6000803e3d6000fd5b505050506040513d601f19601f820116820180604052508101906111bd91906118c4565b5050565b600a60019054906101000a900473ffffffffffffffffffffffffffffffffffffffff1681565b600a60009054906101000a900460ff1681565b6008600081548092919061120d90611e0b565b91905055503360096000600854815260200190815260200160002060010160006101000a81548173ffffffffffffffffffffffffffffffffffffffff021916908373ffffffffffffffffffffffffffffffffffffffff16021790555083600960006008548152602001908152602001600020600301819055508260096000600854815260200190815260200160002060040181905550816009600060085481526020019081526020016000206005018190555080600960006008548152602001908152602001600020600601819055508460096000600854815260200190815260200160002060000160006101000a81548173ffffffffffffffffffffffffffffffffffffffff021916908373ffffffffffffffffffffffffffffffffffffffff1602179055506040518060400160405280600c81526020017f4c6f616e20437265617465640000000000000000000000000000000000000000815250600960006008548152602001908152602001600020600701908051906020019061139592919061176b565b508473ffffffffffffffffffffffffffffffffffffffff166323b872dd3330876040518463ffffffff1660e01b81526004016113d393929190611b49565b602060405180830381600087803b1580156113ed57600080fd5b505af1158015611401573d6000803e3d6000fd5b505050506040513d601f19601f8201168201806040525081019061142591906118c4565b505050505050565b60008060000160009054906101000a900473ffffffffffffffffffffffffffffffffffffffff16908060010160009054906101000a900473ffffffffffffffffffffffffffffffffffffffff16908060020160009054906101000a900473ffffffffffffffffffffffffffffffffffffffff16908060030154908060040154908060050154908060060154908060070180546114c890611dd9565b80601f01602080910402602001604051908101604052809291908181526020018280546114f490611dd9565b80156115415780601f1061151657610100808354040283529160200191611541565b820191906000526020600020905b81548152906001019060200180831161152457829003601f168201915b5050505050905088565b600960008281526020019081526020016000206005015434146115a3576040517f08c379a000000000000000000000000000000000000000000000000000000000815260040161159a90611be4565b60405180910390fd5b336009600083815260200190815260200160002060020160006101000a81548173ffffffffffffffffffffffffffffffffffffffff021916908373ffffffffffffffffffffffffffffffffffffffff1602179055506009600082815260200190815260200160002060000160009054906101000a900473ffffffffffffffffffffffffffffffffffffffff1673ffffffffffffffffffffffffffffffffffffffff1663a9059cbb6009600084815260200190815260200160002060020160009054906101000a900473ffffffffffffffffffffffffffffffffffffffff1660096000858152602001908152602001600020600301546040518363ffffffff1660e01b81526004016116b5929190611b80565b602060405180830381600087803b1580156116cf57600080fd5b505af11580156116e3573d6000803e3d6000fd5b505050506040513d601f19601f8201168201806040525081019061170791906118c4565b506040518060400160405280600d81526020017f4c6f616e20426f72726f7765640000000000000000000000000000000000000081525060096000838152602001908152602001600020600701908051906020019061176792919061176b565b5050565b82805461177790611dd9565b90600052602060002090601f01602090048101928261179957600085556117e0565b82601f106117b257805160ff19168380011785556117e0565b828001600101855582156117e0579182015b828111156117df5782518255916020019190600101906117c4565b5b5090506117ed91906117f1565b5090565b5b8082111561180a5760008160009055506001016117f2565b5090565b60008135905061181d81612045565b92915050565b6000815190506118328161205c565b92915050565b60008135905061184781612073565b92915050565b600080600080600060a0868803121561186557600080fd5b60006118738882890161180e565b955050602061188488828901611838565b945050604061189588828901611838565b93505060606118a688828901611838565b92505060806118b788828901611838565b9150509295509295909350565b6000602082840312156118d657600080fd5b60006118e484828501611823565b91505092915050565b6000602082840312156118ff57600080fd5b600061190d84828501611838565b91505092915050565b61191f81611d5e565b82525050565b61192e81611d03565b82525050565b61193d81611cf1565b82525050565b61194c81611d70565b82525050565b600061195d82611c7f565b6119678185611c8a565b9350611977818560208601611da6565b61198081611ee1565b840191505092915050565b6000611998602483611c8a565b91506119a382611ef2565b604082019050919050565b60006119bb601983611c8a565b91506119c682611f41565b602082019050919050565b60006119de602683611c8a565b91506119e982611f6a565b604082019050919050565b6000611a01602883611c8a565b9150611a0c82611fb9565b604082019050919050565b6000611a24601983611c8a565b9150611a2f82612008565b602082019050919050565b611a4381611d54565b82525050565b6000602082019050611a5e6000830184611925565b92915050565b6000606082019050611a796000830186611916565b611a866020830185611916565b611a936040830184611a3a565b949350505050565b6000604082019050611ab06000830185611916565b611abd6020830184611a3a565b9392505050565b600061010082019050611ada600083018b611934565b611ae7602083018a611934565b611af46040830189611934565b611b016060830188611a3a565b611b0e6080830187611a3a565b611b1b60a0830186611a3a565b611b2860c0830185611a3a565b81810360e0830152611b3a8184611952565b90509998505050505050505050565b6000606082019050611b5e6000830186611934565b611b6b6020830185611934565b611b786040830184611a3a565b949350505050565b6000604082019050611b956000830185611934565b611ba26020830184611a3a565b9392505050565b6000602082019050611bbe6000830184611943565b92915050565b60006020820190508181036000830152611bdd8161198b565b9050919050565b60006020820190508181036000830152611bfd816119ae565b9050919050565b60006020820190508181036000830152611c1d816119d1565b9050919050565b60006020820190508181036000830152611c3d816119f4565b9050919050565b60006020820190508181036000830152611c5d81611a17565b9050919050565b6000602082019050611c796000830184611a3a565b92915050565b600081519050919050565b600082825260208201905092915050565b6000611ca682611d54565b9150611cb183611d54565b9250827fffffffffffffffffffffffffffffffffffffffffffffffffffffffffffffffff03821115611ce657611ce5611e54565b5b828201905092915050565b6000611cfc82611d34565b9050919050565b6000611d0e82611d34565b9050919050565b60008115159050919050565b6000819050611d2f82612031565b919050565b600073ffffffffffffffffffffffffffffffffffffffff82169050919050565b6000819050919050565b6000611d6982611d82565b9050919050565b6000611d7b82611d21565b9050919050565b6000611d8d82611d94565b9050919050565b6000611d9f82611d34565b9050919050565b60005b83811015611dc4578082015181840152602081019050611da9565b83811115611dd3576000848401525b50505050565b60006002820490506001821680611df157607f821691505b60208210811415611e0557611e04611eb2565b5b50919050565b6000611e1682611d54565b91507fffffffffffffffffffffffffffffffffffffffffffffffffffffffffffffffff821415611e4957611e48611e54565b5b600182019050919050565b7f4e487b7100000000000000000000000000000000000000000000000000000000600052601160045260246000fd5b7f4e487b7100000000000000000000000000000000000000000000000000000000600052602160045260246000fd5b7f4e487b7100000000000000000000000000000000000000000000000000000000600052602260045260246000fd5b6000601f19601f8301169050919050565b7f4f6e6c792074686520626f72726f7765722063616e207265706179207468652060008201527f6c6f616e00000000000000000000000000000000000000000000000000000000602082015250565b7f496e76616c696420436f6c6c61746572616c20416d6f756e7400000000000000600082015250565b7f4f6e6c7920746865206c656e6465722063616e206c697175696461746520746860008201527f65206c6f616e0000000000000000000000000000000000000000000000000000602082015250565b7f43616e206e6f74206c6971756964617465206265666f726520746865206c6f6160008201527f6e20697320647565000000000000000000000000000000000000000000000000602082015250565b7f4e6f7420616c6c6f77656420696e207468697320737461746500000000000000600082015250565b6003811061204257612041611e83565b5b50565b61204e81611cf1565b811461205957600080fd5b50565b61206581611d15565b811461207057600080fd5b50565b61207c81611d54565b811461208757600080fd5b5056fea2646970667358221220c9ee5839c1febd81ed3102c1c5baf4f5bbd47e5838611b9881ee2bb7fad2d94064736f6c63430008030033",
    "linkReferences": {},
    "deployedLinkReferences": {}
}